{
  "_format": "hh-sol-artifact-1",
  "contractName": "TrustCircles",
  "sourceName": "contracts/TrustCircles.sol",
  "abi": [
    {
      "inputs": [],
      "stateMutability": "nonpayable",
      "type": "constructor"
    },
    {
      "anonymous": false,
      "inputs": [
        {
          "indexed": true,
          "internalType": "address",
          "name": "user",
          "type": "address"
        },
        {
          "indexed": false,
          "internalType": "string",
          "name": "reason",
          "type": "string"
        }
      ],
      "name": "AccountFrozen",
      "type": "event"
    },
    {
      "anonymous": false,
      "inputs": [
        {
          "indexed": true,
          "internalType": "uint256",
          "name": "circleId",
          "type": "uint256"
        }
      ],
      "name": "CircleActivated",
      "type": "event"
    },
    {
      "anonymous": false,
      "inputs": [
        {
          "indexed": true,
          "internalType": "uint256",
          "name": "circleId",
          "type": "uint256"
        },
        {
          "indexed": false,
          "internalType": "string",
          "name": "name",
          "type": "string"
        },
        {
          "indexed": true,
          "internalType": "address",
          "name": "creator",
          "type": "address"
        }
      ],
      "name": "CircleCreated",
      "type": "event"
    },
    {
      "anonymous": false,
      "inputs": [
        {
          "indexed": true,
          "internalType": "uint256",
          "name": "circleId",
          "type": "uint256"
        },
        {
          "indexed": false,
          "internalType": "uint256",
          "name": "newAverage",
          "type": "uint256"
        }
      ],
      "name": "CircleScoreUpdated",
      "type": "event"
    },
    {
      "anonymous": false,
      "inputs": [
        {
          "indexed": false,
          "internalType": "bool",
          "name": "enabled",
          "type": "bool"
        }
      ],
      "name": "DemoModeToggled",
      "type": "event"
    },
    {
      "anonymous": false,
      "inputs": [
        {
          "indexed": true,
          "internalType": "address",
          "name": "admin",
          "type": "address"
        },
        {
          "indexed": false,
          "internalType": "uint256",
          "name": "amount",
          "type": "uint256"
        },
        {
          "indexed": false,
          "internalType": "uint256",
          "name": "remainingBalance",
          "type": "uint256"
        }
      ],
      "name": "FundsWithdrawn",
      "type": "event"
    },
    {
      "anonymous": false,
      "inputs": [
        {
          "indexed": true,
          "internalType": "address",
          "name": "admin",
          "type": "address"
        },
        {
          "indexed": false,
          "internalType": "uint256",
          "name": "amount",
          "type": "uint256"
        },
        {
          "indexed": false,
          "internalType": "uint256",
          "name": "newBalance",
          "type": "uint256"
        }
      ],
      "name": "LiquidityDeposited",
      "type": "event"
    },
    {
      "anonymous": false,
      "inputs": [
        {
          "indexed": true,
          "internalType": "uint256",
          "name": "loanId",
          "type": "uint256"
        },
        {
          "indexed": true,
          "internalType": "address",
          "name": "borrower",
          "type": "address"
        }
      ],
      "name": "LoanApproved",
      "type": "event"
    },
    {
      "anonymous": false,
      "inputs": [
        {
          "indexed": true,
          "internalType": "uint256",
          "name": "loanId",
          "type": "uint256"
        },
        {
          "indexed": true,
          "internalType": "address",
          "name": "borrower",
          "type": "address"
        },
        {
          "indexed": false,
          "internalType": "uint256",
          "name": "amount",
          "type": "uint256"
        }
      ],
      "name": "LoanDisbursed",
      "type": "event"
    },
    {
      "anonymous": false,
      "inputs": [
        {
          "indexed": true,
          "internalType": "uint256",
          "name": "loanId",
          "type": "uint256"
        },
        {
          "indexed": true,
          "internalType": "address",
          "name": "borrower",
          "type": "address"
        },
        {
          "indexed": false,
          "internalType": "uint256",
          "name": "creditBonus",
          "type": "uint256"
        }
      ],
      "name": "LoanRepaid",
      "type": "event"
    },
    {
      "anonymous": false,
      "inputs": [
        {
          "indexed": true,
          "internalType": "uint256",
          "name": "loanId",
          "type": "uint256"
        },
        {
          "indexed": true,
          "internalType": "address",
          "name": "borrower",
          "type": "address"
        },
        {
          "indexed": false,
          "internalType": "uint256",
          "name": "amount",
          "type": "uint256"
        },
        {
          "indexed": false,
          "internalType": "string",
          "name": "purpose",
          "type": "string"
        }
      ],
      "name": "LoanRequested",
      "type": "event"
    },
    {
      "anonymous": false,
      "inputs": [
        {
          "indexed": true,
          "internalType": "uint256",
          "name": "circleId",
          "type": "uint256"
        },
        {
          "indexed": true,
          "internalType": "address",
          "name": "member",
          "type": "address"
        },
        {
          "indexed": false,
          "internalType": "uint256",
          "name": "totalMembers",
          "type": "uint256"
        }
      ],
      "name": "MemberJoined",
      "type": "event"
    },
    {
      "anonymous": false,
      "inputs": [
        {
          "indexed": true,
          "internalType": "address",
          "name": "user",
          "type": "address"
        },
        {
          "indexed": false,
          "internalType": "uint256",
          "name": "newScore",
          "type": "uint256"
        },
        {
          "indexed": false,
          "internalType": "string",
          "name": "reason",
          "type": "string"
        }
      ],
      "name": "ScoreUpdated",
      "type": "event"
    },
    {
      "inputs": [],
      "name": "CIRCLE_DEFAULT_PENALTY",
      "outputs": [
        {
          "internalType": "uint256",
          "name": "",
          "type": "uint256"
        }
      ],
      "stateMutability": "view",
      "type": "function"
    },
    {
      "inputs": [],
      "name": "CIRCLE_WEIGHT",
      "outputs": [
        {
          "internalType": "uint256",
          "name": "",
          "type": "uint256"
        }
      ],
      "stateMutability": "view",
      "type": "function"
    },
    {
      "inputs": [],
      "name": "DEFAULT_PENALTY",
      "outputs": [
        {
          "internalType": "uint256",
          "name": "",
          "type": "uint256"
        }
      ],
      "stateMutability": "view",
      "type": "function"
    },
    {
      "inputs": [],
      "name": "EARLY_BONUS",
      "outputs": [
        {
          "internalType": "uint256",
          "name": "",
          "type": "uint256"
        }
      ],
      "stateMutability": "view",
      "type": "function"
    },
    {
      "inputs": [],
      "name": "INDIVIDUAL_WEIGHT",
      "outputs": [
        {
          "internalType": "uint256",
          "name": "",
          "type": "uint256"
        }
      ],
      "stateMutability": "view",
      "type": "function"
    },
    {
      "inputs": [],
      "name": "LATE_PENALTY",
      "outputs": [
        {
          "internalType": "uint256",
          "name": "",
          "type": "uint256"
        }
      ],
      "stateMutability": "view",
      "type": "function"
    },
    {
      "inputs": [],
      "name": "LOAN_DURATION",
      "outputs": [
        {
          "internalType": "uint256",
          "name": "",
          "type": "uint256"
        }
      ],
      "stateMutability": "view",
      "type": "function"
    },
    {
      "inputs": [],
      "name": "MAX_SCORE",
      "outputs": [
        {
          "internalType": "uint256",
          "name": "",
          "type": "uint256"
        }
      ],
      "stateMutability": "view",
      "type": "function"
    },
    {
      "inputs": [],
      "name": "MIN_CIRCLE_MEMBERS",
      "outputs": [
        {
          "internalType": "uint256",
          "name": "",
          "type": "uint256"
        }
      ],
      "stateMutability": "view",
      "type": "function"
    },
    {
      "inputs": [],
      "name": "MIN_STAKE",
      "outputs": [
        {
          "internalType": "uint256",
          "name": "",
          "type": "uint256"
        }
      ],
      "stateMutability": "view",
      "type": "function"
    },
    {
      "inputs": [],
      "name": "ON_TIME_BONUS",
      "outputs": [
        {
          "internalType": "uint256",
          "name": "",
          "type": "uint256"
        }
      ],
      "stateMutability": "view",
      "type": "function"
    },
    {
      "inputs": [],
      "name": "STARTING_SCORE",
      "outputs": [
        {
          "internalType": "uint256",
          "name": "",
          "type": "uint256"
        }
      ],
      "stateMutability": "view",
      "type": "function"
    },
    {
      "inputs": [],
      "name": "VERY_LATE_PENALTY",
      "outputs": [
        {
          "internalType": "uint256",
          "name": "",
          "type": "uint256"
        }
      ],
      "stateMutability": "view",
      "type": "function"
    },
    {
      "inputs": [],
      "name": "admin",
      "outputs": [
        {
          "internalType": "address",
          "name": "",
          "type": "address"
        }
      ],
      "stateMutability": "view",
      "type": "function"
    },
    {
      "inputs": [
        {
          "internalType": "uint256",
          "name": "_loanId",
          "type": "uint256"
        }
      ],
      "name": "approveLoan",
      "outputs": [],
      "stateMutability": "nonpayable",
      "type": "function"
    },
    {
      "inputs": [],
      "name": "circleCount",
      "outputs": [
        {
          "internalType": "uint256",
          "name": "",
          "type": "uint256"
        }
      ],
      "stateMutability": "view",
      "type": "function"
    },
    {
      "inputs": [
        {
          "internalType": "string",
          "name": "",
          "type": "string"
        }
      ],
      "name": "circleExists",
      "outputs": [
        {
          "internalType": "bool",
          "name": "",
          "type": "bool"
        }
      ],
      "stateMutability": "view",
      "type": "function"
    },
    {
      "inputs": [
        {
          "internalType": "string",
          "name": "",
          "type": "string"
        }
      ],
      "name": "circles",
      "outputs": [
        {
          "internalType": "string",
          "name": "id",
          "type": "string"
        },
        {
          "internalType": "string",
          "name": "name",
          "type": "string"
        },
        {
          "internalType": "uint256",
          "name": "totalStake",
          "type": "uint256"
        },
        {
          "internalType": "uint256",
          "name": "createdAt",
          "type": "uint256"
        },
        {
          "internalType": "bool",
          "name": "isActive",
          "type": "bool"
        }
      ],
      "stateMutability": "view",
      "type": "function"
    },
    {
      "inputs": [
        {
          "internalType": "string",
          "name": "_name",
          "type": "string"
        }
      ],
      "name": "createCircle",
      "outputs": [],
      "stateMutability": "payable",
      "type": "function"
    },
    {
      "inputs": [],
      "name": "demoLoanDuration",
      "outputs": [
        {
          "internalType": "uint256",
          "name": "",
          "type": "uint256"
        }
      ],
      "stateMutability": "view",
      "type": "function"
    },
    {
      "inputs": [],
      "name": "depositLiquidity",
      "outputs": [],
      "stateMutability": "payable",
      "type": "function"
    },
    {
      "inputs": [
        {
          "internalType": "uint256",
          "name": "_loanId",
          "type": "uint256"
        }
      ],
      "name": "disburseLoan",
      "outputs": [],
      "stateMutability": "payable",
      "type": "function"
    },
    {
      "inputs": [
        {
          "internalType": "string",
          "name": "_circleId",
          "type": "string"
        }
      ],
      "name": "getCircleAverageScore",
      "outputs": [
        {
          "internalType": "uint256",
          "name": "",
          "type": "uint256"
        }
      ],
      "stateMutability": "view",
      "type": "function"
    },
    {
      "inputs": [
        {
          "internalType": "string",
          "name": "_circleId",
          "type": "string"
        }
      ],
      "name": "getCircleDetails",
      "outputs": [
        {
          "internalType": "string",
          "name": "name",
          "type": "string"
        },
        {
          "internalType": "address[]",
          "name": "memberList",
          "type": "address[]"
        },
        {
          "internalType": "uint256",
          "name": "memberCount",
          "type": "uint256"
        },
        {
          "internalType": "uint256",
          "name": "averageScore",
          "type": "uint256"
        },
        {
          "internalType": "uint256",
          "name": "totalStake",
          "type": "uint256"
        },
        {
          "internalType": "bool",
          "name": "isActive",
          "type": "bool"
        }
      ],
      "stateMutability": "view",
      "type": "function"
    },
    {
      "inputs": [
        {
          "internalType": "string",
          "name": "_circleId",
          "type": "string"
        }
      ],
      "name": "getCircleMembersScores",
      "outputs": [
        {
          "internalType": "address[]",
          "name": "addresses",
          "type": "address[]"
        },
        {
          "internalType": "uint256[]",
          "name": "scores",
          "type": "uint256[]"
        },
        {
          "internalType": "uint256",
          "name": "averageScore",
          "type": "uint256"
        }
      ],
      "stateMutability": "view",
      "type": "function"
    },
    {
      "inputs": [],
      "name": "getContractBalance",
      "outputs": [
        {
          "internalType": "uint256",
          "name": "",
          "type": "uint256"
        }
      ],
      "stateMutability": "view",
      "type": "function"
    },
    {
      "inputs": [
        {
          "internalType": "address",
          "name": "_user",
          "type": "address"
        }
      ],
      "name": "getInterestRate",
      "outputs": [
        {
          "internalType": "uint256",
          "name": "",
          "type": "uint256"
        }
      ],
      "stateMutability": "view",
      "type": "function"
    },
    {
      "inputs": [
        {
          "internalType": "uint256",
          "name": "_loanId",
          "type": "uint256"
        }
      ],
      "name": "getLoanDetails",
      "outputs": [
        {
          "internalType": "address",
          "name": "borrower",
          "type": "address"
        },
        {
          "internalType": "uint256",
          "name": "amount",
          "type": "uint256"
        },
        {
          "internalType": "uint256",
          "name": "totalRepayment",
          "type": "uint256"
        },
        {
          "internalType": "uint256",
          "name": "dueDate",
          "type": "uint256"
        },
        {
          "internalType": "bool",
          "name": "approved",
          "type": "bool"
        },
        {
          "internalType": "bool",
          "name": "disbursed",
          "type": "bool"
        },
        {
          "internalType": "bool",
          "name": "repaid",
          "type": "bool"
        },
        {
          "internalType": "string",
          "name": "purpose",
          "type": "string"
        }
      ],
      "stateMutability": "view",
      "type": "function"
    },
    {
      "inputs": [
        {
          "internalType": "address",
          "name": "_user",
          "type": "address"
        }
      ],
      "name": "getMaxLoanAmount",
      "outputs": [
        {
          "internalType": "uint256",
          "name": "",
          "type": "uint256"
        }
      ],
      "stateMutability": "view",
      "type": "function"
    },
    {
      "inputs": [
        {
          "internalType": "address",
          "name": "_user",
          "type": "address"
        }
      ],
      "name": "getTrustScore",
      "outputs": [
        {
          "internalType": "uint256",
          "name": "",
          "type": "uint256"
        }
      ],
      "stateMutability": "view",
      "type": "function"
    },
    {
      "inputs": [
        {
          "internalType": "address",
          "name": "_user",
          "type": "address"
        }
      ],
      "name": "getUserLoans",
      "outputs": [
        {
          "internalType": "uint256[]",
          "name": "",
          "type": "uint256[]"
        }
      ],
      "stateMutability": "view",
      "type": "function"
    },
    {
      "inputs": [
        {
          "internalType": "address",
          "name": "_user",
          "type": "address"
        }
      ],
      "name": "getUserStats",
      "outputs": [
        {
          "internalType": "string",
          "name": "circleId",
          "type": "string"
        },
        {
          "internalType": "uint256",
          "name": "individualScore",
          "type": "uint256"
        },
        {
          "internalType": "uint256",
          "name": "finalTrustScore",
          "type": "uint256"
        },
        {
          "internalType": "uint256",
          "name": "maxLoanAmount",
          "type": "uint256"
        },
        {
          "internalType": "uint256",
          "name": "interestRate",
          "type": "uint256"
        },
        {
          "internalType": "uint256",
          "name": "totalBorrowed",
          "type": "uint256"
        },
        {
          "internalType": "uint256",
          "name": "totalRepaid",
          "type": "uint256"
        },
        {
          "internalType": "uint256",
          "name": "loansCompleted",
          "type": "uint256"
        },
        {
          "internalType": "bool",
          "name": "hasActiveLoan",
          "type": "bool"
        },
        {
          "internalType": "bool",
          "name": "isActive",
          "type": "bool"
        }
      ],
      "stateMutability": "view",
      "type": "function"
    },
    {
      "inputs": [],
      "name": "isDemoMode",
      "outputs": [
        {
          "internalType": "bool",
          "name": "",
          "type": "bool"
        }
      ],
      "stateMutability": "view",
      "type": "function"
    },
    {
      "inputs": [
        {
          "internalType": "uint256",
          "name": "_loanId",
          "type": "uint256"
        }
      ],
      "name": "isLoanOverdue",
      "outputs": [
        {
          "internalType": "bool",
          "name": "",
          "type": "bool"
        }
      ],
      "stateMutability": "view",
      "type": "function"
    },
    {
      "inputs": [
        {
          "internalType": "string",
          "name": "_circleId",
          "type": "string"
        }
      ],
      "name": "joinCircle",
      "outputs": [],
      "stateMutability": "payable",
      "type": "function"
    },
    {
      "inputs": [],
      "name": "loanCount",
      "outputs": [
        {
          "internalType": "uint256",
          "name": "",
          "type": "uint256"
        }
      ],
      "stateMutability": "view",
      "type": "function"
    },
    {
      "inputs": [
        {
          "internalType": "uint256",
          "name": "",
          "type": "uint256"
        }
      ],
      "name": "loans",
      "outputs": [
        {
          "internalType": "uint256",
          "name": "id",
          "type": "uint256"
        },
        {
          "internalType": "address",
          "name": "borrower",
          "type": "address"
        },
        {
          "internalType": "uint256",
          "name": "amount",
          "type": "uint256"
        },
        {
          "internalType": "uint256",
          "name": "interestAmount",
          "type": "uint256"
        },
        {
          "internalType": "uint256",
          "name": "totalRepayment",
          "type": "uint256"
        },
        {
          "internalType": "uint256",
          "name": "requestTime",
          "type": "uint256"
        },
        {
          "internalType": "uint256",
          "name": "approvalTime",
          "type": "uint256"
        },
        {
          "internalType": "uint256",
          "name": "disbursementTime",
          "type": "uint256"
        },
        {
          "internalType": "uint256",
          "name": "dueDate",
          "type": "uint256"
        },
        {
          "internalType": "uint256",
          "name": "repaymentTime",
          "type": "uint256"
        },
        {
          "internalType": "bool",
          "name": "approved",
          "type": "bool"
        },
        {
          "internalType": "bool",
          "name": "disbursed",
          "type": "bool"
        },
        {
          "internalType": "bool",
          "name": "repaid",
          "type": "bool"
        },
        {
          "internalType": "string",
          "name": "purpose",
          "type": "string"
        }
      ],
      "stateMutability": "view",
      "type": "function"
    },
    {
      "inputs": [
        {
          "internalType": "address",
          "name": "",
          "type": "address"
        }
      ],
      "name": "members",
      "outputs": [
        {
          "internalType": "string",
          "name": "circleId",
          "type": "string"
        },
        {
          "internalType": "uint256",
          "name": "individualScore",
          "type": "uint256"
        },
        {
          "internalType": "uint256",
          "name": "trustBond",
          "type": "uint256"
        },
        {
          "internalType": "uint256",
          "name": "totalBorrowed",
          "type": "uint256"
        },
        {
          "internalType": "uint256",
          "name": "totalRepaid",
          "type": "uint256"
        },
        {
          "internalType": "uint256",
          "name": "loansCompleted",
          "type": "uint256"
        },
        {
          "internalType": "bool",
          "name": "isActive",
          "type": "bool"
        },
        {
          "internalType": "bool",
          "name": "hasActiveLoan",
          "type": "bool"
        }
      ],
      "stateMutability": "view",
      "type": "function"
    },
    {
      "inputs": [
        {
          "internalType": "uint256",
          "name": "_loanId",
          "type": "uint256"
        }
      ],
      "name": "penalizeDefault",
      "outputs": [],
      "stateMutability": "nonpayable",
      "type": "function"
    },
    {
      "inputs": [
        {
          "internalType": "uint256",
          "name": "_loanId",
          "type": "uint256"
        }
      ],
      "name": "repayLoan",
      "outputs": [],
      "stateMutability": "payable",
      "type": "function"
    },
    {
      "inputs": [
        {
          "internalType": "uint256",
          "name": "_amount",
          "type": "uint256"
        },
        {
          "internalType": "string",
          "name": "_purpose",
          "type": "string"
        }
      ],
      "name": "requestLoan",
      "outputs": [],
      "stateMutability": "nonpayable",
      "type": "function"
    },
    {
      "inputs": [
        {
          "internalType": "uint256",
          "name": "_duration",
          "type": "uint256"
        }
      ],
      "name": "setDemoLoanDuration",
      "outputs": [],
      "stateMutability": "nonpayable",
      "type": "function"
    },
    {
      "inputs": [
        {
          "internalType": "bool",
          "name": "_enabled",
          "type": "bool"
        }
      ],
      "name": "setDemoMode",
      "outputs": [],
      "stateMutability": "nonpayable",
      "type": "function"
    },
    {
      "inputs": [
        {
          "internalType": "address",
          "name": "_newAdmin",
          "type": "address"
        }
      ],
      "name": "transferAdmin",
      "outputs": [],
      "stateMutability": "nonpayable",
      "type": "function"
    },
    {
      "inputs": [
        {
          "internalType": "address",
          "name": "_user",
          "type": "address"
        }
      ],
      "name": "unfreezeAccount",
      "outputs": [],
      "stateMutability": "nonpayable",
      "type": "function"
    },
    {
      "inputs": [
        {
          "internalType": "address",
          "name": "",
          "type": "address"
        },
        {
          "internalType": "uint256",
          "name": "",
          "type": "uint256"
        }
      ],
      "name": "userLoans",
      "outputs": [
        {
          "internalType": "uint256",
          "name": "",
          "type": "uint256"
        }
      ],
      "stateMutability": "view",
      "type": "function"
    },
    {
      "inputs": [
        {
          "internalType": "uint256",
          "name": "_amount",
          "type": "uint256"
        }
      ],
      "name": "withdraw",
      "outputs": [],
      "stateMutability": "nonpayable",
      "type": "function"
    },
    {
      "stateMutability": "payable",
      "type": "receive"
    }
  ],
  "bytecode": "0x60806040526003805460ff191690556101a460045534801561002057600080fd5b50600080546001600160a01b03191633179055614501806100426000396000f3fe60806040526004361061028c5760003560e01c806371bcb08b1161015a578063c234f397116100c1578063d3ea0f891161007a578063d3ea0f891461076a578063d8bad5bd1461078a578063e02a4dfd146107aa578063e1ec3c68146107c1578063e5bb8878146107fb578063f851a4401461081b57600080fd5b8063c234f397146106ca578063ca593c5914610705578063cb1c2b5c1461070d578063cdd942d814610729578063ce63094d1461073e578063cf0b11171461075457600080fd5b8063a360da5f11610113578063a360da5f1461064f578063aadc1ac114610664578063ab7b1c8914610684578063ad73f38e14610697578063b73e4da0146106b7578063bf15e017146103a357600080fd5b806371bcb08b146105b057806375829def146105c5578063788649ea146105e55780637cce8b5b146106055780637edadd541461061a578063938892391461063a57600080fd5b80634378efc1116101fe5780635e09eea1116101b75780635e09eea1146104f957806361b4bc6b1461051957806366877b8d1461052f57806369765558146105635780636c79e1671461057d5780636f9fb98a1461059d57600080fd5b80634378efc11461041b57806346ab7a8f1461042e5780634b311ade1461045d5780634e43603a14610472578063500ece09146104a857806354ecb9b0146104c857600080fd5b80632dad4538116102505780632dad45381461036c5780632e1a7d4d14610381578063312a41a4146103a357806333166c6a146103b85780633b498602146103cb578063432e5521146103fb57600080fd5b806302bf321f1461029857806308ae4b0c146102ce578063177fb4f2146103025780631d39c6811461032557806327ff62231461035757600080fd5b3661029357005b600080fd5b3480156102a457600080fd5b506102b86102b3366004613d5b565b610853565b6040516102c59190613db1565b60405180910390f35b3480156102da57600080fd5b506102ee6102e9366004613d5b565b6108bf565b6040516102c5989796959493929190613e14565b34801561030e57600080fd5b50610317600581565b6040519081526020016102c5565b34801561033157600080fd5b50610345610340366004613f06565b610990565b6040516102c596959493929190613f74565b34801561036357600080fd5b50610317606481565b34801561037857600080fd5b50610317601481565b34801561038d57600080fd5b506103a161039c366004613fc1565b610bb3565b005b3480156103af57600080fd5b50610317603281565b6103a16103c6366004613f06565b610d01565b3480156103d757600080fd5b506103eb6103e6366004613fc1565b611025565b60405190151581526020016102c5565b34801561040757600080fd5b506103a1610416366004613fc1565b6111a5565b6103a1610429366004613f06565b6114a4565b34801561043a57600080fd5b5061044e610449366004613f06565b611829565b6040516102c593929190613fda565b34801561046957600080fd5b50610317603c81565b34801561047e57600080fd5b5061049261048d366004613d5b565b611bb5565b6040516102c59a99989796959493929190614010565b3480156104b457600080fd5b506103a16104c3366004613fc1565b611dae565b3480156104d457600080fd5b506104e86104e3366004613f06565b611ddd565b6040516102c595949392919061406e565b34801561050557600080fd5b50610317610514366004613d5b565b611f2b565b34801561052557600080fd5b5061031760045481565b34801561053b57600080fd5b5061054f61054a366004613fc1565b61229e565b6040516102c59897969594939291906140b3565b34801561056f57600080fd5b506003546103eb9060ff1681565b34801561058957600080fd5b506103a161059836600461410e565b612450565b3480156105a957600080fd5b5047610317565b3480156105bc57600080fd5b50610317602881565b3480156105d157600080fd5b506103a16105e0366004613d5b565b6129a1565b3480156105f157600080fd5b506103a1610600366004613d5b565b612a35565b34801561061157600080fd5b50610317601e81565b34801561062657600080fd5b506103a1610635366004614155565b612a87565b34801561064657600080fd5b50610317600381565b34801561065b57600080fd5b50610317600a81565b34801561067057600080fd5b506103a161067f366004613fc1565b612af8565b6103a1610692366004613fc1565b612db3565b3480156106a357600080fd5b506103176106b2366004613d5b565b612fc0565b6103a16106c5366004613fc1565b613046565b3480156106d657600080fd5b506103eb6106e5366004613f06565b805160208183018101805160098252928201919093012091525460ff1681565b6103a1613259565b34801561071957600080fd5b506103176706f05b59d3b2000081565b34801561073557600080fd5b50610317600f81565b34801561074a57600080fd5b5061031760025481565b34801561076057600080fd5b5061031760015481565b34801561077657600080fd5b50610317610785366004613d5b565b61330f565b34801561079657600080fd5b506103176107a5366004614177565b61336e565b3480156107b657600080fd5b5061031762093a8081565b3480156107cd57600080fd5b506107e16107dc366004613fc1565b61339f565b6040516102c59e9d9c9b9a999897969594939291906141a1565b34801561080757600080fd5b50610317610816366004613f06565b6134aa565b34801561082757600080fd5b5060005461083b906001600160a01b031681565b6040516001600160a01b0390911681526020016102c5565b6001600160a01b0381166000908152600860209081526040918290208054835181840281018401909452808452606093928301828280156108b357602002820191906000526020600020905b81548152602001906001019080831161089f575b50505050509050919050565b6006602052600090815260409020805481906108da90614233565b80601f016020809104026020016040519081016040528092919081815260200182805461090690614233565b80156109535780601f1061092857610100808354040283529160200191610953565b820191906000526020600020905b81548152906001019060200180831161093657829003601f168201915b5050506001840154600285015460038601546004870154600588015460069098015496979396929550909350919060ff8082169161010090041688565b60608060008060008060006005886040516109ab919061426d565b90815260200160405180910390206040518060c00160405290816000820180546109d490614233565b80601f0160208091040260200160405190810160405280929190818152602001828054610a0090614233565b8015610a4d5780601f10610a2257610100808354040283529160200191610a4d565b820191906000526020600020905b815481529060010190602001808311610a3057829003601f168201915b50505050508152602001600182018054610a6690614233565b80601f0160208091040260200160405190810160405280929190818152602001828054610a9290614233565b8015610adf5780601f10610ab457610100808354040283529160200191610adf565b820191906000526020600020905b815481529060010190602001808311610ac257829003601f168201915b5050505050815260200160028201805480602002602001604051908101604052809291908181526020018280548015610b4157602002820191906000526020600020905b81546001600160a01b03168152600190910190602001808311610b23575b5050505050815260200160038201548152602001600482015481526020016005820160009054906101000a900460ff161515151581525050905080602001518160400151826040015151610b948b6134aa565b606085015160a090950151939c929b5090995097509195509350915050565b6000546001600160a01b03163314610be65760405162461bcd60e51b8152600401610bdd90614289565b60405180910390fd5b60008111610c365760405162461bcd60e51b815260206004820152601d60248201527f416d6f756e74206d7573742062652067726561746572207468616e20300000006044820152606401610bdd565b80471015610c7d5760405162461bcd60e51b8152602060048201526014602482015273496e73756666696369656e742062616c616e636560601b6044820152606401610bdd565b600080546040516001600160a01b039091169183156108fc02918491818181858888f19350505050158015610cb6573d6000803e3d6000fd5b50600054604080518381524760208201526001600160a01b03909216917ffbc3a599b784fe88772fc5abcc07223f64ca0b13acc341f4fb1e46bef0510eb4910160405180910390a250565b6706f05b59d3b20000341015610d525760405162461bcd60e51b815260206004820152601660248201527514dd185ad948185d081b19585cdd080c0b8d481413d360521b6044820152606401610bdd565b3360009081526006602052604090208054610d6c90614233565b159050610db15760405162461bcd60e51b8152602060048201526013602482015272416c726561647920696e206120636972636c6560681b6044820152606401610bdd565b600981604051610dc1919061426d565b9081526040519081900360200190205460ff16610e175760405162461bcd60e51b815260206004820152601460248201527310da5c98db1948191bd95cdb89dd08195e1a5cdd60621b6044820152606401610bdd565b6000600582604051610e29919061426d565b90815260200160405180910390209050600a816002018054905010610e7e5760405162461bcd60e51b815260206004820152600b60248201526a10da5c98db1948199d5b1b60aa1b6044820152606401610bdd565b6002810180546001810182556000918252602082200180546001600160a01b03191633179055600382018054349290610eb89084906142c3565b90915550506040805161010081018252838152603260208083019190915234828401526000606083018190526080830181905260a08301819052600160c084015260e0830181905233815260069091529190912081518190610f1a9082614324565b5060208201516001820155604082015160028083019190915560608301516003808401919091556080840151600484015560a0840151600584015560c08401516006909301805460e09095015115156101000261ff00199415159490941661ffff1990951694909417929092179092559082015410801590610fa15750600581015460ff16155b15610fe35760058101805460ff19166001908117909155546040517faa8b7289f77c0a8b226248e26401151f4903884ab85ba3decb12926f4c7c3acc90600090a25b60015460028201546040519081523391907ff4f82575ee84a81aac4be52b6a368e9ba9df524b4f5cf8177d7cfbabe861820c9060200160405180910390a35050565b600081815260076020818152604080842081516101c0810183528154815260018201546001600160a01b0316938101939093526002810154918301919091526003810154606083015260048101546080830152600581015460a0830152600681015460c08301529182015460e08201526008820154610100808301919091526009830154610120830152600a83015460ff808216151561014085015291810482161515610160840152620100009004161515610180820152600b820180548493916101a08401916110f590614233565b80601f016020809104026020016040519081016040528092919081815260200182805461112190614233565b801561116e5780601f106111435761010080835404028352916020019161116e565b820191906000526020600020905b81548152906001019060200180831161115157829003601f168201915b5050505050815250509050806101600151801561118e5750806101800151155b801561119e575080610100015142115b9392505050565b6000546001600160a01b031633146111cf5760405162461bcd60e51b8152600401610bdd90614289565b6000818152600760205260409020600a810154610100900460ff166112265760405162461bcd60e51b815260206004820152600d60248201526c139bdd08191a5cd89d5c9cd959609a1b6044820152606401610bdd565b600a81015462010000900460ff16156112725760405162461bcd60e51b815260206004820152600e60248201526d105b1c9958591e481c995c185a5960921b6044820152606401610bdd565b600881015461128490621275006142c3565b42116112c75760405162461bcd60e51b815260206004820152601260248201527109cdee840deeccae4c8eaca40cadcdeeaced60731b6044820152606401610bdd565b6001808201546001600160a01b031660008181526006602052604090209182015490919060321161131257603281600101600082825461130791906143e4565b9091555061131a9050565b600060018201555b60068101805460ff1916905560018101546040805191825260208201819052600f908201526e44656661756c742070656e616c747960881b60608201526001600160a01b038316907f2b535fbf4d2281f734a35408583a14d4e2b28653b00d761613e8758399dd6e6d9060800160405180910390a2816001600160a01b03167fc71267b66b2c8820cf488bba23c122cee8408eb55e75428bab72cce8d259e6b96040516113e7906020808252600c908201526b131bd85b88191959985d5b1d60a21b604082015260600190565b60405180910390a2600081600001805461140090614233565b9050111561149e5761149e81600001805461141a90614233565b80601f016020809104026020016040519081016040528092919081815260200182805461144690614233565b80156114935780601f1061146857610100808354040283529160200191611493565b820191906000526020600020905b81548152906001019060200180831161147657829003601f168201915b50505050508361383a565b50505050565b6706f05b59d3b200003410156114f55760405162461bcd60e51b815260206004820152601660248201527514dd185ad948185d081b19585cdd080c0b8d481413d360521b6044820152606401610bdd565b336000908152600660205260409020805461150f90614233565b1590506115545760405162461bcd60e51b8152602060048201526013602482015272416c726561647920696e206120636972636c6560681b6044820152606401610bdd565b60008151116115955760405162461bcd60e51b815260206004820152600d60248201526c13985b59481c995c5d5a5c9959609a1b6044820152606401610bdd565b600061159f6139d0565b90505b6009816040516115b2919061426d565b9081526040519081900360200190205460ff16156115d9576115d26139d0565b90506115a2565b600180549060006115e9836143f7565b909155505060408051600180825281830190925260009160208083019080368337019050509050338160008151811061162457611624614410565b6001600160a01b039092166020928302919091018201526040805160c081018252848152918201859052818101839052346060830152426080830152600060a08301525160059061167690859061426d565b908152604051908190036020019020815181906116939082614324565b50602082015160018201906116a89082614324565b50604082015180516116c4916002840191602090910190613cc5565b506060828101516003830155608080840151600484015560a0938401516005909301805460ff1916931515939093179092556040805161010081018252868152603260208083019190915234828401526000938201849052938101839052938401829052600160c085015260e084018290523382526006909252208151819061174d9082614324565b5060208201516001808301919091556040808401516002840155606084015160038401556080840151600484015560a0840151600584015560c08401516006909301805460e09095015115156101000261ff00199415159490941661ffff199095169490941792909217909255516009906117c990859061426d565b908152604051908190036020018120805492151560ff199093169290921790915560015433917f9dd4b3f469099d544d5099deb88ecca63c93d7f817effe7e205d2846645d70f19061181c908790614426565b60405180910390a3505050565b60608060008060058560405161183f919061426d565b90815260200160405180910390206040518060c001604052908160008201805461186890614233565b80601f016020809104026020016040519081016040528092919081815260200182805461189490614233565b80156118e15780601f106118b6576101008083540402835291602001916118e1565b820191906000526020600020905b8154815290600101906020018083116118c457829003601f168201915b505050505081526020016001820180546118fa90614233565b80601f016020809104026020016040519081016040528092919081815260200182805461192690614233565b80156119735780601f1061194857610100808354040283529160200191611973565b820191906000526020600020905b81548152906001019060200180831161195657829003601f168201915b50505050508152602001600282018054806020026020016040519081016040528092919081815260200182805480156119d557602002820191906000526020600020905b81546001600160a01b031681526001909101906020018083116119b7575b505050918352505060038201546020820152600482015460408083019190915260059092015460ff161515606090910152810151519091508067ffffffffffffffff811115611a2657611a26613e63565b604051908082528060200260200182016040528015611a4f578160200160208202803683370190505b5094508067ffffffffffffffff811115611a6b57611a6b613e63565b604051908082528060200260200182016040528015611a94578160200160208202803683370190505b5093506000805b82811015611b905783604001518181518110611ab957611ab9614410565b6020026020010151878281518110611ad357611ad3614410565b60200260200101906001600160a01b031690816001600160a01b0316815250506006600085604001518381518110611b0d57611b0d614410565b60200260200101516001600160a01b03166001600160a01b0316815260200190815260200160002060010154868281518110611b4b57611b4b614410565b602002602001018181525050858181518110611b6957611b69614410565b602002602001015182611b7c91906142c3565b915080611b88816143f7565b915050611a9b565b5060008211611ba0576000611baa565b611baa828261444f565b959794965050505050565b6060600080600080600080600080600080600660008d6001600160a01b03166001600160a01b031681526020019081526020016000209050600080826001015411611c01576032611c07565b81600101545b90506000611c148e611f2b565b90506000603c821015611c305750678ac7230489e80000611c87565b6046821015611c4957506801158e460913d00000611c87565b6050821015611c6257506802b5e3af16b1880000611c87565b605a821015611c7b575068056bc75e2d63100000611c87565b50680ad78ebc5ac62000005b6000603c831015611c9a57506006611cd1565b6046831015611cab57506004611cd1565b6050831015611cbc57506004611cd1565b605a831015611ccd57506002611cd1565b5060025b600385015460048601546005870154600688015488548994899489948994899460ff610100830481169216908a90611d0890614233565b80601f0160208091040260200160405190810160405280929190818152602001828054611d3490614233565b8015611d815780601f10611d5657610100808354040283529160200191611d81565b820191906000526020600020905b815481529060010190602001808311611d6457829003601f168201915b505050505099509e509e509e509e509e509e509e509e509e509e5050505050509193959799509193959799565b6000546001600160a01b03163314611dd85760405162461bcd60e51b8152600401610bdd90614289565b600455565b8051602081830181018051600582529282019190930120915280548190611e0390614233565b80601f0160208091040260200160405190810160405280929190818152602001828054611e2f90614233565b8015611e7c5780601f10611e5157610100808354040283529160200191611e7c565b820191906000526020600020905b815481529060010190602001808311611e5f57829003601f168201915b505050505090806001018054611e9190614233565b80601f0160208091040260200160405190810160405280929190818152602001828054611ebd90614233565b8015611f0a5780601f10611edf57610100808354040283529160200191611f0a565b820191906000526020600020905b815481529060010190602001808311611eed57829003601f168201915b50505050600383015460048401546005909401549293909290915060ff1685565b6001600160a01b0381166000908152600660205260408082208151610100810190925280548392919082908290611f6190614233565b80601f0160208091040260200160405190810160405280929190818152602001828054611f8d90614233565b8015611fda5780601f10611faf57610100808354040283529160200191611fda565b820191906000526020600020905b815481529060010190602001808311611fbd57829003601f168201915b50505091835250506001820154602080830191909152600283015460408301526003830154606083015260048301546080830152600583015460a083015260069092015460ff808216151560c084015261010090910416151560e09091015281015190915060009061204d576032612053565b81602001515b825151909150600003612067579392505050565b60006005836000015160405161207d919061426d565b90815260200160405180910390206040518060c00160405290816000820180546120a690614233565b80601f01602080910402602001604051908101604052809291908181526020018280546120d290614233565b801561211f5780601f106120f45761010080835404028352916020019161211f565b820191906000526020600020905b81548152906001019060200180831161210257829003601f168201915b5050505050815260200160018201805461213890614233565b80601f016020809104026020016040519081016040528092919081815260200182805461216490614233565b80156121b15780601f10612186576101008083540402835291602001916121b1565b820191906000526020600020905b81548152906001019060200180831161219457829003601f168201915b505050505081526020016002820180548060200260200160405190810160405280929190818152602001828054801561221357602002820191906000526020600020905b81546001600160a01b031681526001909101906020018083116121f5575b5050509183525050600382015460208201526004820154604082015260059091015460ff16151560609091015260a081015190915061225457509392505050565b600061226384600001516134aa565b905060006064612274602884614463565b61227f603c87614463565b61228991906142c3565b612293919061444f565b979650505050505050565b600081815260076020818152604080842081516101c0810183528154815260018201546001600160a01b031693810193909352600281015491830191909152600381015460608381019190915260048201546080840152600582015460a0840152600682015460c08401529281015460e08301526008810154610100808401919091526009820154610120840152600a82015460ff808216151561014086015291810482161515610160850152620100009004161515610180830152600b81018054859485948594859485948594938593909290916101a08401919061238390614233565b80601f01602080910402602001604051908101604052809291908181526020018280546123af90614233565b80156123fc5780601f106123d1576101008083540402835291602001916123fc565b820191906000526020600020905b8154815290600101906020018083116123df57829003601f168201915b5050505050815250509050806020015181604001518260800151836101000151846101400151856101600151866101800151876101a001519850985098509850985098509850985050919395975091939597565b336000908152600660208190526040909120015460ff166124a45760405162461bcd60e51b815260206004820152600e60248201526d20b1b1b7bab73a10333937bd32b760911b6044820152606401610bdd565b33600090815260066020526040812080546124be90614233565b80601f01602080910402602001604051908101604052809291908181526020018280546124ea90614233565b80156125375780601f1061250c57610100808354040283529160200191612537565b820191906000526020600020905b81548152906001019060200180831161251a57829003601f168201915b5050505050905060008151116125815760405162461bcd60e51b815260206004820152600f60248201526e4e6f7420696e206120636972636c6560881b6044820152606401610bdd565b600581604051612591919061426d565b9081526040519081900360200190206005015460ff166125e75760405162461bcd60e51b8152602060048201526011602482015270436972636c65206e6f742061637469766560781b6044820152606401610bdd565b3360009081526006602081905260409091200154610100900460ff16156126505760405162461bcd60e51b815260206004820152601860248201527f416c7265616479206861766520616374697665206c6f616e00000000000000006044820152606401610bdd565b600083116126a05760405162461bcd60e51b815260206004820152601d60248201527f416d6f756e74206d7573742062652067726561746572207468616e20300000006044820152606401610bdd565b60008251116126e45760405162461bcd60e51b815260206004820152601060248201526f141d5c9c1bdcd9481c995c5d5a5c995960821b6044820152606401610bdd565b60006126ef33612fc0565b9050808411156127385760405162461bcd60e51b8152602060048201526014602482015273105b5bdd5b9d08195e18d959591cc81b1a5b5a5d60621b6044820152606401610bdd565b60006127433361330f565b9050600060646127538388614463565b61275d919061444f565b9050600061276b82886142c3565b60028054919250600061277d836143f7565b9190505550604051806101c001604052806002548152602001336001600160a01b0316815260200188815260200183815260200182815260200142815260200160008152602001600081526020016000815260200160008152602001600015158152602001600015158152602001600015158152602001878152506007600060025481526020019081526020016000206000820151816000015560208201518160010160006101000a8154816001600160a01b0302191690836001600160a01b0316021790555060408201518160020155606082015181600301556080820151816004015560a0820151816005015560c0820151816006015560e082015181600701556101008201518160080155610120820151816009015561014082015181600a0160006101000a81548160ff02191690831515021790555061016082015181600a0160016101000a81548160ff02191690831515021790555061018082015181600a0160026101000a81548160ff0219169083151502179055506101a082015181600b01908161290f9190614324565b50503360008181526008602090815260408083206002805482546001810184559286528486209092019190915584845260069283905292819020909101805461ff00191661010017905590549051919250907ffbba0893dd1f941cb4a7bb791aed3ce1ad2a008c20ef3254b2a2cf7752b199f190612990908b908b9061447a565b60405180910390a350505050505050565b6000546001600160a01b031633146129cb5760405162461bcd60e51b8152600401610bdd90614289565b6001600160a01b038116612a135760405162461bcd60e51b815260206004820152600f60248201526e496e76616c6964206164647265737360881b6044820152606401610bdd565b600080546001600160a01b0319166001600160a01b0392909216919091179055565b6000546001600160a01b03163314612a5f5760405162461bcd60e51b8152600401610bdd90614289565b6001600160a01b0316600090815260066020819052604090912001805460ff19166001179055565b6000546001600160a01b03163314612ab15760405162461bcd60e51b8152600401610bdd90614289565b6003805460ff19168215159081179091556040519081527f0348a61a70edddff385f227f11a31f422f3286f343be56a9a2c39cc5f692a5ad9060200160405180910390a150565b6000546001600160a01b03163314612b225760405162461bcd60e51b8152600401610bdd90614289565b600081815260076020526040902060018101546001600160a01b0316612b7f5760405162461bcd60e51b8152602060048201526012602482015271131bd85b88191bd95cdb89dd08195e1a5cdd60721b6044820152606401610bdd565b600a81015460ff1615612bc75760405162461bcd60e51b815260206004820152601060248201526f105b1c9958591e48185c1c1c9bdd995960821b6044820152606401610bdd565b600a810154610100900460ff1615612c155760405162461bcd60e51b8152602060048201526011602482015270105b1c9958591e48191a5cd89d5c9cd959607a1b6044820152606401610bdd565b8060020154471015612c695760405162461bcd60e51b815260206004820152601d60248201527f496e73756666696369656e7420636f6e74726163742062616c616e63650000006044820152606401610bdd565b600a81018054426006840181905561ffff1990911661010117909155600782015560035460009060ff16612ca05762093a80612ca4565b6004545b9050612cb081426142c3565b6008830155600282015460018301546001600160a01b031660009081526006602052604081206003018054909190612ce99084906142c3565b9091555050600182015460028301546040516001600160a01b039092169181156108fc0291906000818181858888f19350505050158015612d2e573d6000803e3d6000fd5b5060018201546040516001600160a01b039091169084907f8b6240997bc3af56f5a9aec0408b8286fb78fb0573f2ba96445be3918511cb9390600090a3600182015460028301546040519081526001600160a01b039091169084907f0ceeb4503a2fe0b51298a0af21358f3d89e7eab3f65ae2a7835859c3e2c516049060200161181c565b600081815260076020526040902060018101546001600160a01b03163314612e0d5760405162461bcd60e51b815260206004820152600d60248201526c2737ba103cb7bab9103637b0b760991b6044820152606401610bdd565b600a810154610100900460ff16612e5a5760405162461bcd60e51b8152602060048201526011602482015270139bdd08191a5cd89d5c9cd959081e595d607a1b6044820152606401610bdd565b600a81015462010000900460ff1615612ea65760405162461bcd60e51b815260206004820152600e60248201526d105b1c9958591e481c995c185a5960921b6044820152606401610bdd565b80600401543414612eec5760405162461bcd60e51b815260206004820152601060248201526f125b98dbdc9c9958dd08185b5bdd5b9d60821b6044820152606401610bdd565b600a8101805462ff0000191662010000179055426009820155600480820154336000908152600660205260408120909201805491929091612f2e9084906142c3565b9091555050336000908152600660205260408120600501805491612f51836143f7565b9091555050336000908152600660208190526040822001805461ff00191690556008820154612f809042613af7565b9050612f8c3382613b49565b604051818152339084907f512d3e65b3e58c2187bb1872aa435dba5bd09c1c03823ba56ab70aac411e4a219060200161181c565b600080612fcc83611f2b565b9050603c811015612fe75750678ac7230489e8000092915050565b604681101561300157506801158e460913d0000092915050565b605081101561301b57506802b5e3af16b188000092915050565b605a811015613035575068056bc75e2d6310000092915050565b50680ad78ebc5ac620000092915050565b6000546001600160a01b031633146130705760405162461bcd60e51b8152600401610bdd90614289565b6000818152600760205260409020600a81015460ff166130c15760405162461bcd60e51b815260206004820152600c60248201526b139bdd08185c1c1c9bdd995960a21b6044820152606401610bdd565b600a810154610100900460ff161561310f5760405162461bcd60e51b8152602060048201526011602482015270105b1c9958591e48191a5cd89d5c9cd959607a1b6044820152606401610bdd565b806002015434146131555760405162461bcd60e51b815260206004820152601060248201526f125b98dbdc9c9958dd08185b5bdd5b9d60821b6044820152606401610bdd565b600a8101805461ff00191661010017905542600782015560035460009060ff166131825762093a80613186565b6004545b905061319281426142c3565b6008830155600282015460018301546001600160a01b0316600090815260066020526040812060030180549091906131cb9084906142c3565b9091555050600182015460028301546040516001600160a01b039092169181156108fc0291906000818181858888f19350505050158015613210573d6000803e3d6000fd5b50600182015460028301546040519081526001600160a01b039091169084907f0ceeb4503a2fe0b51298a0af21358f3d89e7eab3f65ae2a7835859c3e2c516049060200161181c565b6000546001600160a01b031633146132835760405162461bcd60e51b8152600401610bdd90614289565b600034116132d35760405162461bcd60e51b815260206004820152601860248201527f4d757374206465706f73697420736f6d6520616d6f756e7400000000000000006044820152606401610bdd565b6040805134815247602082015233917fb7cd4486a08dcd2bf7da217a07d1069da69db8ffb3518c7014d6e6d4d973a552910160405180910390a2565b60008061331b83611f2b565b9050603c81101561332f5750600692915050565b60468110156133415750600492915050565b60508110156133535750600492915050565b605a8110156133655750600292915050565b50600292915050565b6008602052816000526040600020818154811061338a57600080fd5b90600052602060002001600091509150505481565b600760208190526000918252604090912080546001820154600283015460038401546004850154600586015460068701549787015460088801546009890154600a8a0154600b8b0180549a9c6001600160a01b03909a169b989a97999698959794959394929360ff808416946101008504821694620100009004909116929061342790614233565b80601f016020809104026020016040519081016040528092919081815260200182805461345390614233565b80156134a05780601f10613475576101008083540402835291602001916134a0565b820191906000526020600020905b81548152906001019060200180831161348357829003601f168201915b505050505090508e565b6000806005836040516134bd919061426d565b90815260200160405180910390206040518060c00160405290816000820180546134e690614233565b80601f016020809104026020016040519081016040528092919081815260200182805461351290614233565b801561355f5780601f106135345761010080835404028352916020019161355f565b820191906000526020600020905b81548152906001019060200180831161354257829003601f168201915b5050505050815260200160018201805461357890614233565b80601f01602080910402602001604051908101604052809291908181526020018280546135a490614233565b80156135f15780601f106135c6576101008083540402835291602001916135f1565b820191906000526020600020905b8154815290600101906020018083116135d457829003601f168201915b505050505081526020016002820180548060200260200160405190810160405280929190818152602001828054801561365357602002820191906000526020600020905b81546001600160a01b03168152600190910190602001808311613635575b505050918352505060038201546020820152600482015460408083019190915260059092015460ff1615156060909101528101515190915060000361369b5750603292915050565b6000805b82604001515181101561382157600060066000856040015184815181106136c8576136c8614410565b60200260200101516001600160a01b03166001600160a01b031681526020019081526020016000206040518061010001604052908160008201805461370c90614233565b80601f016020809104026020016040519081016040528092919081815260200182805461373890614233565b80156137855780601f1061375a57610100808354040283529160200191613785565b820191906000526020600020905b81548152906001019060200180831161376857829003601f168201915b50505091835250506001820154602080830191909152600283015460408301526003830154606083015260048301546080830152600583015460a083015260069092015460ff808216151560c084015261010090910416151560e0909101528101519091506000906137f85760326137fe565b81602001515b905061380a81856142c3565b935050508080613819906143f7565b91505061369f565b50604082015151613832908261444f565b949350505050565b600060058360405161384c919061426d565b9081526020016040518091039020905060005b600282015481101561398057600082600201828154811061388257613882614410565b6000918252602090912001546001600160a01b0390811691508416811461396d576001600160a01b038116600090815260066020526040902060018101546014116138e75760148160010160008282546138dc91906143e4565b909155506138ef9050565b600060018201555b816001600160a01b03167f2b535fbf4d2281f734a35408583a14d4e2b28653b00d761613e8758399dd6e6d82600101546040516139639181526040602082018190526017908201527f436972636c65206d656d6265722064656661756c746564000000000000000000606082015260800190565b60405180910390a2505b5080613978816143f7565b91505061385f565b50600061398c846134aa565b90506001547f4a5e6ecbfd54d06b19dc783d391ee4018c00c0de42e2f86de9f4dd6ec8c0f0ed826040516139c291815260200190565b60405180910390a250505050565b606060006040518060600160405280602481526020016144a860249139604080516006808252818301909252919250600091906020820181803683370190505090506000424433600154604051602001613a559493929190938452602084019290925260601b6bffffffffffffffffffffffff19166040830152605482015260740190565b6040516020818303038152906040528051906020012060001c905060005b6006811015613aee5783845183613a8a9190614493565b81518110613a9a57613a9a614410565b602001015160f81c60f81b838281518110613ab757613ab7614410565b60200101906001600160f81b031916908160001a9053508351613ada908361444f565b915080613ae6816143f7565b915050613a73565b50909392505050565b600082821015613b095750600f613b43565b613b16836203f4806142c3565b8211613b245750600a613b43565b613b318362093a806142c3565b8211613b3f57506005613b43565b5060005b92915050565b6001600160a01b03821660009081526006602052604090208115613c10576064828260010154613b7991906142c3565b1115613b8b5760646001820155613ba5565b81816001016000828254613b9f91906142c3565b90915550505b826001600160a01b03167f2b535fbf4d2281f734a35408583a14d4e2b28653b00d761613e8758399dd6e6d8260010154604051613c07918152604060208201819052600b908201526a131bd85b881c995c185a5960aa1b606082015260800190565b60405180910390a25b6000816000018054613c2190614233565b90501115613cc057600061398c826000018054613c3d90614233565b80601f0160208091040260200160405190810160405280929190818152602001828054613c6990614233565b8015613cb65780601f10613c8b57610100808354040283529160200191613cb6565b820191906000526020600020905b815481529060010190602001808311613c9957829003601f168201915b50505050506134aa565b505050565b828054828255906000526020600020908101928215613d1a579160200282015b82811115613d1a57825182546001600160a01b0319166001600160a01b03909116178255602090920191600190910190613ce5565b50613d26929150613d2a565b5090565b5b80821115613d265760008155600101613d2b565b80356001600160a01b0381168114613d5657600080fd5b919050565b600060208284031215613d6d57600080fd5b61119e82613d3f565b600081518084526020808501945080840160005b83811015613da657815187529582019590820190600101613d8a565b509495945050505050565b60208152600061119e6020830184613d76565b60005b83811015613ddf578181015183820152602001613dc7565b50506000910152565b60008151808452613e00816020860160208601613dc4565b601f01601f19169290920160200192915050565b6000610100808352613e288184018c613de8565b602084019a909a52505060408101969096526060860194909452608085019290925260a0840152151560c0830152151560e090910152919050565b634e487b7160e01b600052604160045260246000fd5b600082601f830112613e8a57600080fd5b813567ffffffffffffffff80821115613ea557613ea5613e63565b604051601f8301601f19908116603f01168101908282118183101715613ecd57613ecd613e63565b81604052838152866020858801011115613ee657600080fd5b836020870160208301376000602085830101528094505050505092915050565b600060208284031215613f1857600080fd5b813567ffffffffffffffff811115613f2f57600080fd5b61383284828501613e79565b600081518084526020808501945080840160005b83811015613da65781516001600160a01b031687529582019590820190600101613f4f565b60c081526000613f8760c0830189613de8565b8281036020840152613f998189613f3b565b91505085604083015284606083015283608083015282151560a0830152979650505050505050565b600060208284031215613fd357600080fd5b5035919050565b606081526000613fed6060830186613f3b565b8281036020840152613fff8186613d76565b915050826040830152949350505050565b60006101408083526140248184018e613de8565b602084019c909c52505060408101989098526060880196909652608087019490945260a086019290925260c085015260e08401521515610100830152151561012090910152919050565b60a08152600061408160a0830188613de8565b82810360208401526140938188613de8565b604084019690965250506060810192909252151560809091015292915050565b600061010060018060a01b038b168352896020840152886040840152876060840152861515608084015285151560a084015284151560c08401528060e08401526140ff81840185613de8565b9b9a5050505050505050505050565b6000806040838503121561412157600080fd5b82359150602083013567ffffffffffffffff81111561413f57600080fd5b61414b85828601613e79565b9150509250929050565b60006020828403121561416757600080fd5b8135801515811461119e57600080fd5b6000806040838503121561418a57600080fd5b61419383613d3f565b946020939093013593505050565b8e815260018060a01b038e1660208201528c60408201528b60608201528a60808201528960a08201528860c08201528760e082015286610100820152856101208201528415156101408201526141fc61016082018515159052565b8215156101808201526101c06101a0820152600061421e6101c0830184613de8565b90509f9e505050505050505050505050505050565b600181811c9082168061424757607f821691505b60208210810361426757634e487b7160e01b600052602260045260246000fd5b50919050565b6000825161427f818460208701613dc4565b9190910192915050565b6020808252600a908201526927b7363c9030b236b4b760b11b604082015260600190565b634e487b7160e01b600052601160045260246000fd5b80820180821115613b4357613b436142ad565b601f821115613cc057600081815260208120601f850160051c810160208610156142fd5750805b601f850160051c820191505b8181101561431c57828155600101614309565b505050505050565b815167ffffffffffffffff81111561433e5761433e613e63565b6143528161434c8454614233565b846142d6565b602080601f831160018114614387576000841561436f5750858301515b600019600386901b1c1916600185901b17855561431c565b600085815260208120601f198616915b828110156143b657888601518255948401946001909101908401614397565b50858210156143d45787850151600019600388901b60f8161c191681555b5050505050600190811b01905550565b81810381811115613b4357613b436142ad565b600060018201614409576144096142ad565b5060010190565b634e487b7160e01b600052603260045260246000fd5b60208152600061119e6020830184613de8565b634e487b7160e01b600052601260045260246000fd5b60008261445e5761445e614439565b500490565b8082028115828204841417613b4357613b436142ad565b8281526040602082015260006138326040830184613de8565b6000826144a2576144a2614439565b50069056fe4142434445464748494a4b4c4d4e4f505152535455565758595a30313233343536373839a2646970667358221220957ac1c087fd1e9e1eec20ab448c9e0bae699650efbb0a00583131a410dccab764736f6c63430008140033",
  "linkReferences": {},
  "deployedLinkReferences": {}
}